:020000040000FA
:100000000C945D000C9485000C9485000C94850084
:100010000C9485000C9485000C9485000C9485004C
:100020000C9485000C9485000C9485000C9485003C
:100030000C9485000C9485000C9485000C9485002C
:100040000C944C010C9485000C9485000C94850054
:100050000C9485000C9485000C9485000C9485000C
:100060000C9485000C94850000000008000201003B
:100070000003040700000000000000000000000072
:10008000250028002B0000000000240027002A0083
:10009000040404040404040402020202020203032E
:1000A0000303030301020408102040800102040836
:1000B0001020010204081020C30211241FBECFEF3C
:1000C000D8E0DEBFCDBF11E0A0E0B1E0E4EDF5E0A7
:1000D00002C005900D92AC38B107D9F721E0ACE829
:1000E000B1E001C01D92AB3AB207E1F710E0CDE5F7
:1000F000D0E004C02197FE010E94E202CC35D10776
:10010000C9F70E9496010C94E8020C94000090E05C
:10011000FC01EC55FF4F249180579F4FFC018491C7
:10012000882399F090E0880F991FFC01EA57FF4F50
:10013000A591B491FC01E458FF4F859194918FB73C
:10014000F894EC91E22BEC938FBF089590E0FC01C2
:10015000E859FF4F2491FC01EC55FF4F3491FC010D
:10016000E057FF4FE491EE23C9F0222339F023300A
:1001700001F1A8F4213019F1223029F1F0E0EE0F5D
:10018000FF1FE458FF4FA591B4918FB7F894EC91FD
:10019000611126C030953E233C938FBF08952730D0
:1001A000A9F02830C9F0243049F7809180008F7D74
:1001B00003C0809180008F7780938000DFCF84B56B
:1001C0008F7784BDDBCF84B58F7DFBCF8091B0006E
:1001D0008F778093B000D2CF8091B0008F7DF9CF20
:1001E0003E2BDACF3FB7F894809191019091920124
:1001F000A0919301B091940126B5A89B05C02F3F13
:1002000019F00196A11DB11D3FBFBA2FA92F982F3C
:100210008827BC01CD01620F711D811D911D42E037
:10022000660F771F881F991F4A95D1F708958F92FF
:100230009F92AF92BF92CF92DF92EF92FF920E9475
:10024000F2004B015C0182E3C82ED12CE12CF12C91
:100250000E94F200681979098A099B09683E734077
:1002600081059105A8F321E0C21AD108E108F1083F
:1002700088EE880E83E0981EA11CB11CC114D10425
:10028000E104F10429F7FF90EF90DF90CF90BF9049
:10029000AF909F908F9008951F920F920FB60F927C
:1002A00011242F933F938F939F93AF93BF9380918C
:1002B0008D0190918E01A0918F01B09190013091AC
:1002C0008C0123E0230F2D3758F50196A11DB11D98
:1002D00020938C0180938D0190938E01A0938F01C8
:1002E000B09390018091910190919201A09193011E
:1002F000B09194010196A11DB11D8093910190933D
:100300009201A0939301B0939401BF91AF919F91FB
:100310008F913F912F910F900FBE0F901F901895C6
:1003200026E8230F0296A11DB11DD2CF789484B583
:10033000826084BD84B5816084BD85B5826085BDE1
:1003400085B5816085BD80916E00816080936E006F
:100350001092810080918100826080938100809161
:100360008100816080938100809180008160809312
:1003700080008091B10084608093B1008091B000D2
:1003800081608093B00080917A00846080937A00CD
:1003900080917A00826080937A0080917A008160F7
:1003A00080937A0080917A00806880937A0010921E
:1003B000C10082E00E94870083E00E94870084E001
:1003C0000E94870085E00E94870086E00E948700E7
:1003D00087E00E94870088E00E9487008DE00E94ED
:1003E00087008CE00E94870067E0D62E00E010E0D6
:1003F0008091A9019091AA010A970CF096C01092E1
:10040000A8011092A701C091A701D091A801CA30FC
:10041000D10574F760E08DE00E94A60061E08CE0F9
:100420000E94A6001092A6011092A501E090A501DD
:10043000F090A60187E0E816F10404F58091A3018D
:100440009091A401D89EF001D99EF00D1124EE0DDB
:10045000FF1DEE0FFF1FE050FF4FD701AA0FBB1F7C
:10046000AB56BE4F60818C910E94A6008FEFE81AB8
:10047000F80AF092A601E092A501D8CF0E941701D8
:1004800061E08DE00E94A60060E08CE00E94A60082
:100490001092A6011092A501DC9E5001DD9EB00CC9
:1004A0001124E090A501F090A60187E0E816F10480
:1004B000C4F4F501EE0DFF1DEE0FFF1FE050FF4FDE
:1004C000D701AA0FBB1FAB56BE4F60818C910E9413
:1004D000A6008FEFE81AF80AF092A601E092A501B3
:1004E000E0CF0E941701C930D105C9F42091A901BC
:1004F0003091AA018091A3019091A401019690935B
:10050000A4018093A3012F5F3F4F3093AA01209352
:10051000A9010A9724F01092A4011092A301219638
:10052000D093A801C093A7016ECF60E08DE00E9438
:10053000A60061E08CE00E94A6001092A601109235
:10054000A501C091A501D091A601C730D105A4F4A1
:10055000DE01AA0FBB1FA258BE4FFE01EE0FFF1F08
:10056000EB56FE4F6C9180810E94A6002196D0939D
:10057000A601C093A501E5CF0115110509F438CFF7
:100580000E94000035CFE5E9F1E082E090E0918340
:10059000808383E090E09383828384E090E095837E
:1005A000848385E090E09783868386E090E091875E
:1005B000808787E090E09387828788E090E0958746
:1005C00084870895EE0FFF1F0590F491E02D0994A4
:1005D000F894FFCF010001000000010001000100BC
:1005E0000100010001000100010001000100010003
:1005F00000000000000000000100010001000100F7
:1006000001000100010001000000010001000100E3
:1006100000000100010000000100010001000000D5
:1006200000000100010000000100000000000100C6
:1006300001000100010001000000010001000000B4
:1006400001000100000000000000000001000100A6
:100650000000000001000100010001000100010094
:107E0000112484B714BE81FFF0D085E080938100F7
:107E100082E08093C00088E18093C10086E0809377
:107E2000C20080E18093C4008EE0C9D0259A86E02C
:107E300020E33CEF91E0309385002093840096BBD3
:107E4000B09BFECF1D9AA8958150A9F7CC24DD24C4
:107E500088248394B5E0AB2EA1E19A2EF3E0BF2EE7
:107E6000A2D0813461F49FD0082FAFD0023811F036
:107E7000013811F484E001C083E08DD089C08234E0
:107E800011F484E103C0853419F485E0A6D080C0E4
:107E9000853579F488D0E82EFF2485D0082F10E0AE
:107EA000102F00270E291F29000F111F8ED06801E7
:107EB0006FC0863521F484E090D080E0DECF843638
:107EC00009F040C070D06FD0082F6DD080E0C81688
:107ED00080E7D80618F4F601B7BEE895C0E0D1E017
:107EE00062D089930C17E1F7F0E0CF16F0E7DF06D8
:107EF00018F0F601B7BEE89568D007B600FCFDCFD4
:107F0000A601A0E0B1E02C9130E011968C91119780
:107F100090E0982F8827822B932B1296FA010C0160
:107F200087BEE89511244E5F5F4FF1E0A038BF0790
:107F300051F7F601A7BEE89507B600FCFDCF97BE46
:107F4000E89526C08437B1F42ED02DD0F82E2BD052
:107F50003CD0F601EF2C8F010F5F1F4F84911BD097
:107F6000EA94F801C1F70894C11CD11CFA94CF0C13
:107F7000D11C0EC0853739F428D08EE10CD085E9AC
:107F80000AD08FE07ACF813511F488E018D01DD067
:107F900080E101D065CF982F8091C00085FFFCCF94
:107FA0009093C60008958091C00087FFFCCF809118
:107FB000C00084FD01C0A8958091C6000895E0E648
:107FC000F0E098E1908380830895EDDF803219F02E
:107FD00088E0F5DFFFCF84E1DECF1F93182FE3DFCA
:107FE0001150E9F7F2DF1F91089580E0E8DFEE27F6
:047FF000FF270994CA
:027FFE00040479
:00000001FF
